{
  "contractName": "GradualPonzi",
  "abi": [
    {
      "payable": true,
      "stateMutability": "payable",
      "type": "fallback"
    },
    {
      "constant": true,
      "inputs": [],
      "name": "MINIMUM_INVESTMENT",
      "outputs": [
        {
          "internalType": "uint256",
          "name": "",
          "type": "uint256"
        }
      ],
      "payable": false,
      "stateMutability": "view",
      "type": "function"
    },
    {
      "constant": true,
      "inputs": [
        {
          "internalType": "address",
          "name": "",
          "type": "address"
        }
      ],
      "name": "balances",
      "outputs": [
        {
          "internalType": "uint256",
          "name": "",
          "type": "uint256"
        }
      ],
      "payable": false,
      "stateMutability": "view",
      "type": "function"
    },
    {
      "constant": true,
      "inputs": [
        {
          "internalType": "uint256",
          "name": "",
          "type": "uint256"
        }
      ],
      "name": "investors",
      "outputs": [
        {
          "internalType": "address",
          "name": "",
          "type": "address"
        }
      ],
      "payable": false,
      "stateMutability": "view",
      "type": "function"
    },
    {
      "constant": false,
      "inputs": [],
      "name": "withdraw",
      "outputs": [],
      "payable": false,
      "stateMutability": "nonpayable",
      "type": "function"
    }
  ],
  "bytecode": "0x608060405234801561001057600080fd5b506103fb806100206000396000f3fe60806040526004361061003f5760003560e01c806327e235e3146101725780633ccfd60b146101d75780633feb5f2b146101ee5780638a4660fe14610269575b66038d7ea4c6800034101561005357600080fd5b60008080549050348161006257fe5b04905060008090505b60008054905081101561010857816001600080848154811061008957fe5b9060005260206000200160009054906101000a900473ffffffffffffffffffffffffffffffffffffffff1673ffffffffffffffffffffffffffffffffffffffff1673ffffffffffffffffffffffffffffffffffffffff16815260200190815260200160002060008282540192505081905550808060010191505061006b565b5060003390806001815401808255809150509060018203906000526020600020016000909192909190916101000a81548173ffffffffffffffffffffffffffffffffffffffff021916908373ffffffffffffffffffffffffffffffffffffffff1602179055505050005b34801561017e57600080fd5b506101c16004803603602081101561019557600080fd5b81019080803573ffffffffffffffffffffffffffffffffffffffff169060200190929190505050610294565b6040518082815260200191505060405180910390f35b3480156101e357600080fd5b506101ec6102ac565b005b3480156101fa57600080fd5b506102276004803603602081101561021157600080fd5b810190808035906020019092919050505061037f565b604051808273ffffffffffffffffffffffffffffffffffffffff1673ffffffffffffffffffffffffffffffffffffffff16815260200191505060405180910390f35b34801561027557600080fd5b5061027e6103bb565b6040518082815260200191505060405180910390f35b60016020528060005260406000206000915090505481565b6000600160003373ffffffffffffffffffffffffffffffffffffffff1673ffffffffffffffffffffffffffffffffffffffff1681526020019081526020016000205490506000600160003373ffffffffffffffffffffffffffffffffffffffff1673ffffffffffffffffffffffffffffffffffffffff168152602001908152602001600020819055503373ffffffffffffffffffffffffffffffffffffffff166108fc829081150290604051600060405180830381858888f1935050505015801561037b573d6000803e3d6000fd5b5050565b6000818154811061038c57fe5b906000526020600020016000915054906101000a900473ffffffffffffffffffffffffffffffffffffffff1681565b66038d7ea4c680008156fea265627a7a723158204c0c49b1d03d51deaddd0f5a46d15b47714231c77345da6c8270a607c091922864736f6c63430005100032",
  "source": "pragma solidity >=0.4.21 <0.6.0;\n\ncontract Ponzy2 {\n  address payable public currentInvestor;\n  uint256 public currentInvestment = 0;\n\n  function() external payable {\n    // new investments must be 10% greater than current\n    uint256 minimumInvestment = (currentInvestment * 11) / 10;\n    require(msg.value > minimumInvestment);\n    // document new investor\n    address payable previousInvestor = currentInvestor;\n    currentInvestor = msg.sender;\n    currentInvestment = msg.value;\n    // payout previous investor\n    previousInvestor.transfer(msg.value);\n  }\n}\n\ncontract GradualPonzi {\n  address[] public investors;\n  mapping(address => uint256) public balances;\n  uint256 public constant MINIMUM_INVESTMENT = 1e15;\n\n  // function GradualPonzi() public {\n  //   investors.push(msg.sender);\n  // }\n\n  function() external payable {\n    require(msg.value >= MINIMUM_INVESTMENT);\n    uint256 eachInvestorGets = msg.value / investors.length;\n    for (uint256 i = 0; i < investors.length; i++) {\n      balances[investors[i]] += eachInvestorGets;\n    }\n    investors.push(msg.sender);\n  }\n\n  function withdraw() public {\n    uint256 payout = balances[msg.sender];\n    balances[msg.sender] = 0;\n    msg.sender.transfer(payout);\n  }\n}\n",
  "sourcePath": "/Users/amin/Documents/Ethereum/dapp_solidity_reactjs/src/contracts/Ponzy2.sol",
  "compiler": {
    "name": "solc",
    "version": "0.5.16+commit.9c3226ce.Emscripten.clang"
  },
  "schemaVersion": "3.3.4",
  "updatedAt": "2021-06-10T19:29:53.268Z",
  "devdoc": {
    "methods": {}
  },
  "userdoc": {
    "methods": {}
  }
}