{
  "contractName": "SimplePonzi",
  "abi": [
    {
      "payable": true,
      "stateMutability": "payable",
      "type": "fallback"
    },
    {
      "constant": true,
      "inputs": [],
      "name": "currentInvestment",
      "outputs": [
        {
          "internalType": "uint256",
          "name": "",
          "type": "uint256"
        }
      ],
      "payable": false,
      "stateMutability": "view",
      "type": "function"
    },
    {
      "constant": true,
      "inputs": [],
      "name": "currentInvestor",
      "outputs": [
        {
          "internalType": "address payable",
          "name": "",
          "type": "address"
        }
      ],
      "payable": false,
      "stateMutability": "view",
      "type": "function"
    }
  ],
  "bytecode": "0x6080604052600060015534801561001557600080fd5b506101e3806100256000396000f3fe6080604052600436106100295760003560e01c8063523e27d414610101578063b2667cd014610158575b6000600a600b600154028161003a57fe5b04905080341161004957600080fd5b60008060009054906101000a900473ffffffffffffffffffffffffffffffffffffffff169050336000806101000a81548173ffffffffffffffffffffffffffffffffffffffff021916908373ffffffffffffffffffffffffffffffffffffffff160217905550346001819055508073ffffffffffffffffffffffffffffffffffffffff166108fc349081150290604051600060405180830381858888f193505050501580156100fc573d6000803e3d6000fd5b505050005b34801561010d57600080fd5b50610116610183565b604051808273ffffffffffffffffffffffffffffffffffffffff1673ffffffffffffffffffffffffffffffffffffffff16815260200191505060405180910390f35b34801561016457600080fd5b5061016d6101a8565b6040518082815260200191505060405180910390f35b6000809054906101000a900473ffffffffffffffffffffffffffffffffffffffff1681565b6001548156fea265627a7a723158203a6d8c86bafadeb8b3ad2f992aaac8bad00b568bbdad538ead5370a564ba564e64736f6c63430005100032",
  "source": "pragma solidity >=0.4.21 <0.6.0;\n\ncontract SimplePonzi {\n  address payable public currentInvestor;\n  uint256 public currentInvestment = 0;\n\n  function() external payable {\n    // new investments must be 10% greater than current\n    uint256 minimumInvestment = (currentInvestment * 11) / 10;\n    require(msg.value > minimumInvestment);\n    // document new investor\n    address payable previousInvestor = currentInvestor;\n    currentInvestor = msg.sender;\n    currentInvestment = msg.value;\n    // payout previous investor\n    previousInvestor.transfer(msg.value);\n  }\n}\n",
  "sourcePath": "/Users/amin/Documents/Ethereum/dapp_solidity_reactjs/src/contracts/Ponzy.sol",
  "compiler": {
    "name": "solc",
    "version": "0.5.16+commit.9c3226ce.Emscripten.clang"
  },
  "schemaVersion": "3.3.4",
  "updatedAt": "2021-06-10T14:40:20.642Z",
  "devdoc": {
    "methods": {}
  },
  "userdoc": {
    "methods": {}
  }
}